{
  "contractName": "SocialMoneyFactory",
  "abi": [
    {
      "inputs": [
        {
          "internalType": "address",
          "name": "template",
          "type": "address"
        }
      ],
      "payable": false,
      "stateMutability": "nonpayable",
      "type": "constructor"
    },
    {
      "anonymous": false,
      "inputs": [
        {
          "indexed": false,
          "internalType": "uint256",
          "name": "token_id",
          "type": "uint256"
        },
        {
          "indexed": true,
          "internalType": "address",
          "name": "owner",
          "type": "address"
        },
        {
          "indexed": true,
          "internalType": "address",
          "name": "token",
          "type": "address"
        },
        {
          "indexed": false,
          "internalType": "uint256",
          "name": "total_supply",
          "type": "uint256"
        },
        {
          "indexed": false,
          "internalType": "string",
          "name": "name",
          "type": "string"
        },
        {
          "indexed": false,
          "internalType": "string",
          "name": "symbol",
          "type": "string"
        },
        {
          "indexed": false,
          "internalType": "uint256",
          "name": "decimals",
          "type": "uint256"
        }
      ],
      "name": "NewToken",
      "type": "event"
    },
    {
      "constant": true,
      "inputs": [],
      "name": "tokenCount",
      "outputs": [
        {
          "internalType": "uint256",
          "name": "",
          "type": "uint256"
        }
      ],
      "payable": false,
      "stateMutability": "view",
      "type": "function"
    },
    {
      "constant": true,
      "inputs": [],
      "name": "tokenTemplate",
      "outputs": [
        {
          "internalType": "address",
          "name": "",
          "type": "address"
        }
      ],
      "payable": false,
      "stateMutability": "view",
      "type": "function"
    },
    {
      "constant": false,
      "inputs": [
        {
          "internalType": "string",
          "name": "name",
          "type": "string"
        },
        {
          "internalType": "string",
          "name": "symbol",
          "type": "string"
        }
      ],
      "name": "createToken",
      "outputs": [
        {
          "internalType": "address",
          "name": "",
          "type": "address"
        }
      ],
      "payable": false,
      "stateMutability": "nonpayable",
      "type": "function"
    },
    {
      "constant": true,
      "inputs": [
        {
          "internalType": "address",
          "name": "owner",
          "type": "address"
        }
      ],
      "name": "getToken",
      "outputs": [
        {
          "internalType": "address",
          "name": "",
          "type": "address"
        }
      ],
      "payable": false,
      "stateMutability": "view",
      "type": "function"
    },
    {
      "constant": true,
      "inputs": [
        {
          "internalType": "address",
          "name": "token",
          "type": "address"
        }
      ],
      "name": "getOwner",
      "outputs": [
        {
          "internalType": "address",
          "name": "",
          "type": "address"
        }
      ],
      "payable": false,
      "stateMutability": "view",
      "type": "function"
    },
    {
      "constant": true,
      "inputs": [
        {
          "internalType": "uint256",
          "name": "token_id",
          "type": "uint256"
        }
      ],
      "name": "getTokenWithId",
      "outputs": [
        {
          "internalType": "address",
          "name": "",
          "type": "address"
        }
      ],
      "payable": false,
      "stateMutability": "view",
      "type": "function"
    }
  ],
  "bytecode": "0x608060405234801561001057600080fd5b5060405161242a38038061242a8339818101604052602081101561003357600080fd5b8101908080519060200190929190505050600073ffffffffffffffffffffffffffffffffffffffff166000809054906101000a900473ffffffffffffffffffffffffffffffffffffffff1673ffffffffffffffffffffffffffffffffffffffff16146100ea576040517f08c379a00000000000000000000000000000000000000000000000000000000081526004018080602001828103825260268152602001806124046026913960400191505060405180910390fd5b600073ffffffffffffffffffffffffffffffffffffffff168173ffffffffffffffffffffffffffffffffffffffff161415610170576040517f08c379a00000000000000000000000000000000000000000000000000000000081526004018080602001828103825260218152602001806123e36021913960400191505060405180910390fd5b806000806101000a81548173ffffffffffffffffffffffffffffffffffffffff021916908373ffffffffffffffffffffffffffffffffffffffff16021790555050612223806101c06000396000f3fe60806040523480156200001157600080fd5b50600436106200006a5760003560e01c80630814d3dd146200006f5780632f2f2d5614620000bb5780635977043814620002565780639f181b5e14620002dd578063aa65a6c014620002fd578063fa544161146200036e575b600080fd5b62000079620003f5565b604051808273ffffffffffffffffffffffffffffffffffffffff1673ffffffffffffffffffffffffffffffffffffffff16815260200191505060405180910390f35b6200021460048036036040811015620000d357600080fd5b8101908080359060200190640100000000811115620000f157600080fd5b8201836020820111156200010457600080fd5b803590602001918460018302840111640100000000831117156200012757600080fd5b91908080601f016020809104026020016040519081016040528093929190818152602001838380828437600081840152601f19601f820116905080830192505050505050509192919290803590602001906401000000008111156200018b57600080fd5b8201836020820111156200019e57600080fd5b80359060200191846001830284011164010000000083111715620001c157600080fd5b91908080601f016020809104026020016040519081016040528093929190818152602001838380828437600081840152601f19601f8201169050808301925050505050505091929192905050506200041a565b604051808273ffffffffffffffffffffffffffffffffffffffff1673ffffffffffffffffffffffffffffffffffffffff16815260200191505060405180910390f35b6200029b600480360360208110156200026e57600080fd5b81019080803573ffffffffffffffffffffffffffffffffffffffff169060200190929190505050620009a6565b604051808273ffffffffffffffffffffffffffffffffffffffff1673ffffffffffffffffffffffffffffffffffffffff16815260200191505060405180910390f35b620002e762000a0f565b6040518082815260200191505060405180910390f35b6200032c600480360360208110156200031557600080fd5b810190808035906020019092919050505062000a15565b604051808273ffffffffffffffffffffffffffffffffffffffff1673ffffffffffffffffffffffffffffffffffffffff16815260200191505060405180910390f35b620003b3600480360360208110156200038657600080fd5b81019080803573ffffffffffffffffffffffffffffffffffffffff16906020019092919050505062000a52565b604051808273ffffffffffffffffffffffffffffffffffffffff1673ffffffffffffffffffffffffffffffffffffffff16815260200191505060405180910390f35b6000809054906101000a900473ffffffffffffffffffffffffffffffffffffffff1681565b60008061520890506000601290506000339050600073ffffffffffffffffffffffffffffffffffffffff168173ffffffffffffffffffffffffffffffffffffffff1614156200046857600080fd5b600073ffffffffffffffffffffffffffffffffffffffff166000809054906101000a900473ffffffffffffffffffffffffffffffffffffffff1673ffffffffffffffffffffffffffffffffffffffff161415620004c457600080fd5b600073ffffffffffffffffffffffffffffffffffffffff16600260008373ffffffffffffffffffffffffffffffffffffffff1673ffffffffffffffffffffffffffffffffffffffff16815260200190815260200160002060009054906101000a900473ffffffffffffffffffffffffffffffffffffffff1673ffffffffffffffffffffffffffffffffffffffff1614620005c6576040517f08c379a00000000000000000000000000000000000000000000000000000000081526004018080602001828103825260198152602001807f796f7520616c7265616479206372656174656420746f6b656e0000000000000081525060200191505060405180910390fd5b600086866012604051620005da9062000abb565b8080602001806020018460ff168152602001838103835286818151815260200191508051906020019080838360005b838110156200062657808201518184015260208101905062000609565b50505050905090810190601f168015620006545780820380516001836020036101000a031916815260200191505b50838103825285818151815260200191508051906020019080838360005b838110156200068f57808201518184015260208101905062000672565b50505050905090810190601f168015620006bd5780820380516001836020036101000a031916815260200191505b5095505050505050604051809103906000f080158015620006e2573d6000803e3d6000fd5b50905080600260008473ffffffffffffffffffffffffffffffffffffffff1673ffffffffffffffffffffffffffffffffffffffff16815260200190815260200160002060006101000a81548173ffffffffffffffffffffffffffffffffffffffff021916908373ffffffffffffffffffffffffffffffffffffffff16021790555081600360008373ffffffffffffffffffffffffffffffffffffffff1673ffffffffffffffffffffffffffffffffffffffff16815260200190815260200160002060006101000a81548173ffffffffffffffffffffffffffffffffffffffff021916908373ffffffffffffffffffffffffffffffffffffffff16021790555060006001805401905080600181905550816004600083815260200190815260200160002060006101000a81548173ffffffffffffffffffffffffffffffffffffffff021916908373ffffffffffffffffffffffffffffffffffffffff1602179055508173ffffffffffffffffffffffffffffffffffffffff168373ffffffffffffffffffffffffffffffffffffffff167f448b2b507e957c8acaf9b1396ab11d4ae8ebc2170206159524adf9069a7c08ec83888c8c8a604051808681526020018581526020018060200180602001848152602001838103835286818151815260200191508051906020019080838360005b83811015620008ef578082015181840152602081019050620008d2565b50505050905090810190601f1680156200091d5780820380516001836020036101000a031916815260200191505b50838103825285818151815260200191508051906020019080838360005b83811015620009585780820151818401526020810190506200093b565b50505050905090810190601f168015620009865780820380516001836020036101000a031916815260200191505b5097505050505050505060405180910390a3819550505050505092915050565b6000600260008373ffffffffffffffffffffffffffffffffffffffff1673ffffffffffffffffffffffffffffffffffffffff16815260200190815260200160002060009054906101000a900473ffffffffffffffffffffffffffffffffffffffff169050919050565b60015481565b60006004600083815260200190815260200160002060009054906101000a900473ffffffffffffffffffffffffffffffffffffffff169050919050565b6000600360008373ffffffffffffffffffffffffffffffffffffffff1673ffffffffffffffffffffffffffffffffffffffff16815260200190815260200160002060009054906101000a900473ffffffffffffffffffffffffffffffffffffffff169050919050565b6117258062000aca8339019056fe60806040526152086006553480156200001757600080fd5b506040516200172538038062001725833981810160405260608110156200003d57600080fd5b81019080805160405193929190846401000000008211156200005e57600080fd5b838201915060208201858111156200007557600080fd5b82518660018202830111640100000000821117156200009357600080fd5b8083526020830192505050908051906020019080838360005b83811015620000c9578082015181840152602081019050620000ac565b50505050905090810190601f168015620000f75780820380516001836020036101000a031916815260200191505b50604052602001805160405193929190846401000000008211156200011b57600080fd5b838201915060208201858111156200013257600080fd5b82518660018202830111640100000000821117156200015057600080fd5b8083526020830192505050908051906020019080838360005b838110156200018657808201518184015260208101905062000169565b50505050905090810190601f168015620001b45780820380516001836020036101000a031916815260200191505b50604052602001805190602001909291905050508282828260039080519060200190620001e3929190620004cc565b508160049080519060200190620001fc929190620004cc565b5080600560006101000a81548160ff021916908360ff1602179055505050506200022f336006546200027960201b60201c565b33600760006101000a81548173ffffffffffffffffffffffffffffffffffffffff021916908373ffffffffffffffffffffffffffffffffffffffff1602179055505050506200057b565b600073ffffffffffffffffffffffffffffffffffffffff168273ffffffffffffffffffffffffffffffffffffffff1614156200031d576040517f08c379a000000000000000000000000000000000000000000000000000000000815260040180806020018281038252601f8152602001807f45524332303a206d696e7420746f20746865207a65726f20616464726573730081525060200191505060405180910390fd5b62000339816002546200044360201b62000fdc1790919060201c565b60028190555062000397816000808573ffffffffffffffffffffffffffffffffffffffff1673ffffffffffffffffffffffffffffffffffffffff168152602001908152602001600020546200044360201b62000fdc1790919060201c565b6000808473ffffffffffffffffffffffffffffffffffffffff1673ffffffffffffffffffffffffffffffffffffffff168152602001908152602001600020819055508173ffffffffffffffffffffffffffffffffffffffff16600073ffffffffffffffffffffffffffffffffffffffff167fddf252ad1be2c89b69c2b068fc378daa952ba7f163c4a11628f55a4df523b3ef836040518082815260200191505060405180910390a35050565b600080828401905083811015620004c2576040517f08c379a000000000000000000000000000000000000000000000000000000000815260040180806020018281038252601b8152602001807f536166654d6174683a206164646974696f6e206f766572666c6f77000000000081525060200191505060405180910390fd5b8091505092915050565b828054600181600116156101000203166002900490600052602060002090601f016020900481019282601f106200050f57805160ff191683800117855562000540565b8280016001018555821562000540579182015b828111156200053f57825182559160200191906001019062000522565b5b5090506200054f919062000553565b5090565b6200057891905b80821115620005745760008160009055506001016200055a565b5090565b90565b61119a806200058b6000396000f3fe608060405234801561001057600080fd5b50600436106100cf5760003560e01c8063395093511161008c57806395d89b411161006657806395d89b41146103ab578063a457c2d71461042e578063a9059cbb14610494578063dd62ed3e146104fa576100cf565b806339509351146102a357806370a08231146103095780638da5cb5b14610361576100cf565b806306fdde03146100d4578063095ea7b31461015757806318160ddd146101bd57806323b872dd146101db5780632ff2e9dc14610261578063313ce5671461027f575b600080fd5b6100dc610572565b6040518080602001828103825283818151815260200191508051906020019080838360005b8381101561011c578082015181840152602081019050610101565b50505050905090810190601f1680156101495780820380516001836020036101000a031916815260200191505b509250505060405180910390f35b6101a36004803603604081101561016d57600080fd5b81019080803573ffffffffffffffffffffffffffffffffffffffff16906020019092919080359060200190929190505050610614565b604051808215151515815260200191505060405180910390f35b6101c5610632565b6040518082815260200191505060405180910390f35b610247600480360360608110156101f157600080fd5b81019080803573ffffffffffffffffffffffffffffffffffffffff169060200190929190803573ffffffffffffffffffffffffffffffffffffffff1690602001909291908035906020019092919050505061063c565b604051808215151515815260200191505060405180910390f35b610269610715565b6040518082815260200191505060405180910390f35b61028761071b565b604051808260ff1660ff16815260200191505060405180910390f35b6102ef600480360360408110156102b957600080fd5b81019080803573ffffffffffffffffffffffffffffffffffffffff16906020019092919080359060200190929190505050610732565b604051808215151515815260200191505060405180910390f35b61034b6004803603602081101561031f57600080fd5b81019080803573ffffffffffffffffffffffffffffffffffffffff1690602001909291905050506107e5565b6040518082815260200191505060405180910390f35b61036961082d565b604051808273ffffffffffffffffffffffffffffffffffffffff1673ffffffffffffffffffffffffffffffffffffffff16815260200191505060405180910390f35b6103b3610853565b6040518080602001828103825283818151815260200191508051906020019080838360005b838110156103f35780820151818401526020810190506103d8565b50505050905090810190601f1680156104205780820380516001836020036101000a031916815260200191505b509250505060405180910390f35b61047a6004803603604081101561044457600080fd5b81019080803573ffffffffffffffffffffffffffffffffffffffff169060200190929190803590602001909291905050506108f5565b604051808215151515815260200191505060405180910390f35b6104e0600480360360408110156104aa57600080fd5b81019080803573ffffffffffffffffffffffffffffffffffffffff169060200190929190803590602001909291905050506109c2565b604051808215151515815260200191505060405180910390f35b61055c6004803603604081101561051057600080fd5b81019080803573ffffffffffffffffffffffffffffffffffffffff169060200190929190803573ffffffffffffffffffffffffffffffffffffffff1690602001909291905050506109e0565b6040518082815260200191505060405180910390f35b606060038054600181600116156101000203166002900480601f01602080910402602001604051908101604052809291908181526020018280546001816001161561010002031660029004801561060a5780601f106105df5761010080835404028352916020019161060a565b820191906000526020600020905b8154815290600101906020018083116105ed57829003601f168201915b5050505050905090565b6000610628610621610a67565b8484610a6f565b6001905092915050565b6000600254905090565b6000610649848484610c66565b61070a84610655610a67565b610705856040518060600160405280602881526020016110d060289139600160008b73ffffffffffffffffffffffffffffffffffffffff1673ffffffffffffffffffffffffffffffffffffffff16815260200190815260200160002060006106bb610a67565b73ffffffffffffffffffffffffffffffffffffffff1673ffffffffffffffffffffffffffffffffffffffff16815260200190815260200160002054610f1c9092919063ffffffff16565b610a6f565b600190509392505050565b60065481565b6000600560009054906101000a900460ff16905090565b60006107db61073f610a67565b846107d68560016000610750610a67565b73ffffffffffffffffffffffffffffffffffffffff1673ffffffffffffffffffffffffffffffffffffffff16815260200190815260200160002060008973ffffffffffffffffffffffffffffffffffffffff1673ffffffffffffffffffffffffffffffffffffffff16815260200190815260200160002054610fdc90919063ffffffff16565b610a6f565b6001905092915050565b60008060008373ffffffffffffffffffffffffffffffffffffffff1673ffffffffffffffffffffffffffffffffffffffff168152602001908152602001600020549050919050565b600760009054906101000a900473ffffffffffffffffffffffffffffffffffffffff1681565b606060048054600181600116156101000203166002900480601f0160208091040260200160405190810160405280929190818152602001828054600181600116156101000203166002900480156108eb5780601f106108c0576101008083540402835291602001916108eb565b820191906000526020600020905b8154815290600101906020018083116108ce57829003601f168201915b5050505050905090565b60006109b8610902610a67565b846109b385604051806060016040528060258152602001611141602591396001600061092c610a67565b73ffffffffffffffffffffffffffffffffffffffff1673ffffffffffffffffffffffffffffffffffffffff16815260200190815260200160002060008a73ffffffffffffffffffffffffffffffffffffffff1673ffffffffffffffffffffffffffffffffffffffff16815260200190815260200160002054610f1c9092919063ffffffff16565b610a6f565b6001905092915050565b60006109d66109cf610a67565b8484610c66565b6001905092915050565b6000600160008473ffffffffffffffffffffffffffffffffffffffff1673ffffffffffffffffffffffffffffffffffffffff16815260200190815260200160002060008373ffffffffffffffffffffffffffffffffffffffff1673ffffffffffffffffffffffffffffffffffffffff16815260200190815260200160002054905092915050565b600033905090565b600073ffffffffffffffffffffffffffffffffffffffff168373ffffffffffffffffffffffffffffffffffffffff161415610af5576040517f08c379a000000000000000000000000000000000000000000000000000000000815260040180806020018281038252602481526020018061111d6024913960400191505060405180910390fd5b600073ffffffffffffffffffffffffffffffffffffffff168273ffffffffffffffffffffffffffffffffffffffff161415610b7b576040517f08c379a00000000000000000000000000000000000000000000000000000000081526004018080602001828103825260228152602001806110886022913960400191505060405180910390fd5b80600160008573ffffffffffffffffffffffffffffffffffffffff1673ffffffffffffffffffffffffffffffffffffffff16815260200190815260200160002060008473ffffffffffffffffffffffffffffffffffffffff1673ffffffffffffffffffffffffffffffffffffffff168152602001908152602001600020819055508173ffffffffffffffffffffffffffffffffffffffff168373ffffffffffffffffffffffffffffffffffffffff167f8c5be1e5ebec7d5bd14f71427d1e84f3dd0314c0f7b2291e5b200ac8c7c3b925836040518082815260200191505060405180910390a3505050565b600073ffffffffffffffffffffffffffffffffffffffff168373ffffffffffffffffffffffffffffffffffffffff161415610cec576040517f08c379a00000000000000000000000000000000000000000000000000000000081526004018080602001828103825260258152602001806110f86025913960400191505060405180910390fd5b600073ffffffffffffffffffffffffffffffffffffffff168273ffffffffffffffffffffffffffffffffffffffff161415610d72576040517f08c379a00000000000000000000000000000000000000000000000000000000081526004018080602001828103825260238152602001806110656023913960400191505060405180910390fd5b610ddd816040518060600160405280602681526020016110aa602691396000808773ffffffffffffffffffffffffffffffffffffffff1673ffffffffffffffffffffffffffffffffffffffff16815260200190815260200160002054610f1c9092919063ffffffff16565b6000808573ffffffffffffffffffffffffffffffffffffffff1673ffffffffffffffffffffffffffffffffffffffff16815260200190815260200160002081905550610e70816000808573ffffffffffffffffffffffffffffffffffffffff1673ffffffffffffffffffffffffffffffffffffffff16815260200190815260200160002054610fdc90919063ffffffff16565b6000808473ffffffffffffffffffffffffffffffffffffffff1673ffffffffffffffffffffffffffffffffffffffff168152602001908152602001600020819055508173ffffffffffffffffffffffffffffffffffffffff168373ffffffffffffffffffffffffffffffffffffffff167fddf252ad1be2c89b69c2b068fc378daa952ba7f163c4a11628f55a4df523b3ef836040518082815260200191505060405180910390a3505050565b6000838311158290610fc9576040517f08c379a00000000000000000000000000000000000000000000000000000000081526004018080602001828103825283818151815260200191508051906020019080838360005b83811015610f8e578082015181840152602081019050610f73565b50505050905090810190601f168015610fbb5780820380516001836020036101000a031916815260200191505b509250505060405180910390fd5b5060008385039050809150509392505050565b60008082840190508381101561105a576040517f08c379a000000000000000000000000000000000000000000000000000000000815260040180806020018281038252601b8152602001807f536166654d6174683a206164646974696f6e206f766572666c6f77000000000081525060200191505060405180910390fd5b809150509291505056fe45524332303a207472616e7366657220746f20746865207a65726f206164647265737345524332303a20617070726f766520746f20746865207a65726f206164647265737345524332303a207472616e7366657220616d6f756e7420657863656564732062616c616e636545524332303a207472616e7366657220616d6f756e74206578636565647320616c6c6f77616e636545524332303a207472616e736665722066726f6d20746865207a65726f206164647265737345524332303a20617070726f76652066726f6d20746865207a65726f206164647265737345524332303a2064656372656173656420616c6c6f77616e63652062656c6f77207a65726fa265627a7a723158205123bb94e907562a37c375caf544f0bf59433872ab94f768b4ea5abb88e2aaf164736f6c63430005100032a265627a7a72315820176534b5a0c3dcbecdafd7654550c442333776ce2b51732e6a04114905a7b99864736f6c6343000510003274656d706c617465206d757374206e6f74206265207a65726f2061646472657373746f6b656e54656d706c617465206d757374206e6f74206265207a65726f2061646472657373",
  "source": "pragma solidity ^0.5.6;\n\nimport \"./SocialMoney.sol\";\nimport \"../interfaces/ISocialMoneyFactory.sol\";\n\n\ncontract SocialMoneyFactory {\n\n  /***********************************|\n  |       Events And Variables        |\n  |__________________________________*/\n\n  event NewToken(uint256 token_id, address indexed owner, address indexed token, uint total_supply, string name, string symbol, uint decimals);\n\n  address public tokenTemplate;\n  uint256 public tokenCount;\n  mapping (address => address) internal owner_to_token;\n  mapping (address => address) internal token_to_owner;\n  mapping (uint256 => address) internal id_to_token;\n\n  /***********************************|\n  |         Factory Functions         |\n  |__________________________________*/\n  constructor(address template) public {\n    require(tokenTemplate == address(0), \"tokenTemplate must not be zero address\");\n    require(template != address(0), \"template must not be zero address\");\n    tokenTemplate = template;\n  }\n\n  /* function initializeFactory(address template) public {\n    require(exchangeTemplate == address(0));\n    require(template != address(0));\n    exchangeTemplate = template;\n  } */\n\n  function createToken(string memory name, string memory symbol) public returns (address) {\n    uint total_supply = 21000;\n    uint decimals = 18;\n    address owner = msg.sender;\n    require(owner != address(0));\n    require(tokenTemplate != address(0));\n    require(owner_to_token[owner] == address(0), \"you already created token\");\n    SocialMoney token = new SocialMoney(name, symbol, 18);\n    owner_to_token[owner] = address(token);\n    token_to_owner[address(token)] = owner;\n    uint256 token_id = tokenCount + 1;\n    tokenCount = token_id;\n    id_to_token[token_id] = address(token);\n    emit NewToken(token_id, owner, address(token), total_supply, name, symbol, decimals);\n    return address(token);\n  }\n\n  /***********************************|\n  |         Getter Functions          |\n  |__________________________________*/\n\n  function getToken(address owner) public view returns (address) {\n    return owner_to_token[owner];\n  }\n\n  function getOwner(address token) public view returns (address) {\n    return token_to_owner[token];\n  }\n\n  function getTokenWithId(uint256 token_id) public view returns (address) {\n    return id_to_token[token_id];\n  }\n\n}\n\n",
  "sourcePath": "/Users/zhangxiang/workspace/social-money-contract/contracts/erc20/SocialMoneyFactory.sol",
  "compiler": {
    "name": "solc",
    "version": "0.5.16+commit.9c3226ce.Emscripten.clang"
  },
  "schemaVersion": "3.1.0",
  "updatedAt": "2020-05-15T06:39:39.300Z",
  "networkType": "ethereum",
  "devdoc": {
    "methods": {}
  },
  "userdoc": {
    "methods": {
      "constructor": "*********************************| |         Factory Functions         | |__________________________________",
      "getToken(address)": {
        "notice": "*********************************| |         Getter Functions          | |__________________________________"
      }
    }
  }
}